:100000000C94D4000C94FC000C94FC000C94FC00A8
:100010000C94FC000C94FC000C94FC000C94FC0070
:100020000C94FC000C94FC000C94630D0C94D20D09
:100030000C94FC000C94FC000C94FC000C94FC0050
:100040000C94FC000C94FC000C94FC000C94FC0040
:100050000C94FC000C94FC000C94FC000C94041018
:100060000C94FC000C94FC000C94FC000C94FC0020
:100070000C94FC000C94FC000C94FC000C94FC0010
:100080000C94FC000C94FC000C94FC000C94FC0000
:100090000C94FC000C94FC000C94FC000C94FC00F0
:1000A0000C94FC000C94FC000C94FC00000000007C
:1000B000240027002A002D003000080B0002020255
:1000C00000000904000001020200000524001001E4
:1000D0000524010101042402060524060001070588
:1000E000810310004009040100020A000000070516
:1000F00002024000000705830240000004030904D7
:1001000012010002EF02014041233680000101028A
:10011000030141726475696E6F204C4C43004D4978
:100120004449324E656F706978656C0000000000CC
:100130002300260029002C002F00000000002500CD
:1001400028002B002E0031000404040404030405DD
:100150000202020204030202020206060606060664
:10016000040402020204040408020110408040104A
:1001700020408040800802040180402010020110CD
:100180008010204040200000000200090F00000302
:100190000401000C0000000000000000000000004E
:1001A0000000000000004E1011241FBECFEFDAE067
:1001B000DEBFCDBF12E0A0E0B1E0E6E5F2E302C0B1
:1001C00005900D92A638B107D9F726E0A6E8B2E06F
:1001D00001C01D92A530B207E1F710E0C4EDD0E0F8
:1001E00004C02197FE010E941117C33DD107C9F732
:1001F0000E94EE100C9429190C940000DC01179653
:100200002C91179730E0F901E959FE4FE4911696C9
:10021000EC931697285B3E4FF9018491E82FF0E0AC
:10022000EE0FFF1FE65CFE4F8591949113969C9311
:100230008E931297F9012491E22FF0E0EE0FFF1F49
:10024000E45DFE4F8591949115969C938E9314973F
:1002500008952FB7F89483E08093E9009091E80027
:10026000892F807295FF04C09091F20080E4891B71
:100270002FBF089580E991E0089540919F02509129
:10028000A00220919D0230919E0242175307B4F4C0
:100290009091E8009570E1F39091E80092FD19C00B
:1002A0008093F10080919F029091A00201968F733C
:1002B0009927892B19F48EEF8093E80080919F0293
:1002C0009091A00201969093A00280939F0281E0FA
:1002D000089580E00895EF92FF920F931F93CF93BC
:1002E000DF93F82E192FE62E042F81E0860F880F5A
:1002F0000E943D0183E00E943D01CF2DD12FEC0EE5
:10030000FD2EF11CCE15DF05B9F007FF13C0FE016D
:1003100084910E943D01182F80E00E943D018123BD
:1003200021968111EFCFDF91CF911F910F91FF9017
:10033000EF9008958881EDCF81E0F5CFDF92EF92C5
:10034000FF920F931F93CF93DF93D82E8A01EB0177
:100350007B01E40EF51ECE15DF0559F0D7FE12C065
:10036000FE0184910E943D0121968111F4CF0FEF8F
:100370001FEFC801DF91CF911F910F91FF90EF9078
:10038000DF9008958881EECF9091A602992319F10C
:100390003FB7F89487708093E9008091F20090E075
:1003A000481759070CF4CA01282FFB0154E62150C5
:1003B00038F028985093A2024091F1004193F7CF72
:1003C000009739F02091F200211103C02BE6209311
:1003D000E8003FBF08958FEF9FEF08959FB7F8940F
:1003E00087708093E9008091F2009FBF089561506B
:1003F00030F02091F100FC0120830196F8CF28987D
:1004000084E68093A20208958091950281110DC027
:1004100082E08093910284E0809392021092940291
:100420001092930281E08093950281E992E0089511
:100430000F931F93CF93DF931F92CDB7DEB782E068
:10044000898342E450E06AEB70E080E80E949E01FC
:100450000E940402DC0112960D911C9101151105F8
:1004600089F0D801ED91FC910280F381E02DBE016D
:100470006F5F7F4FC801099597FD04C0F8010085A3
:100480001185ECCF89810F90DF91CF911F910F9152
:100490000895CF93DF931F92CDB7DEB76983DC0158
:1004A000ED91FC910280F381E02D41E050E0BE012E
:1004B0006F5F7F4F09950F90DF91CF91089583E093
:1004C0008093E9008091F200882319F08AE38093F9
:1004D000E80008950E94290190E00895CF93DF93EA
:1004E0001F92CDB7DEB7FC018485958597FD08C0C6
:1004F0002FEF3FEF358724870F90DF91CF9108953D
:1005000041E050E0BE016F5F7F4F82E00E94C40176
:10051000019719F4898190E0EFCF8FEF9FEFECCF37
:100520000F931F93CF93DF931F92CDB7DEB78C014C
:10053000FC018485958597FF0FC041E050E0BE0126
:100540006F5F7F4F82E00E94C401019771F489813F
:1005500090E0F80195878487F801848595850F9050
:10056000DF91CF911F910F9108958FEF9FEFF1CF02
:10057000FC018485958597FD06C082E00E94EE010E
:1005800090E00196089582E00E94EE0190E00895C7
:1005900081508F3008F047C0E82FF0E0EE52FD4F59
:1005A0000C941117EF02F302E102E702EB021303CE
:1005B00013031303F602FC02000304030A031303EC
:1005C0000E03809180008F77809380000895809142
:1005D00080008F7DF9CF80918000877FF5CF84B533
:1005E0008F7784BD089584B58F7DFBCF8091900077
:1005F0008F77809390000895809190008F7DF9CF40
:1006000080919000877FF5CF8091C0008F77809395
:10061000C00008958091C0008F7DF9CF8091C20005
:10062000877F8093C20008951F93CF93DF93EAE8FA
:10063000F1E09491EBE6F1E0D491ECE4F1E0C491C7
:10064000CC23B9F0182F992319F0892F0E94C802E2
:10065000EC2FF0E0EE0FFF1FE65CFE4FA591B4918A
:100660008FB7F894EC91111108C0D095DE23DC937C
:100670008FBFDF91CF911F910895DE2BF8CFCF93DD
:10068000DF93282F30E0F901EA57FE4F8491F901FA
:10069000E959FE4FD491F901E85BFE4FC491CC2398
:1006A000A1F081110E94C802EC2FF0E0EE0FFF1FB5
:1006B000E45DFE4FA591B491EC91ED2381E090E0D3
:1006C00009F480E0DF91CF91089580E090E0FACFC7
:1006D000CF93DF9390E0FC01E959FE4F2491885BB2
:1006E0009E4FFC0184918823D1F090E0880F991FE0
:1006F000FC01E455FF4FA591B491FC01E65CFE4F6F
:10070000C591D491623071F49FB7F8943C91822FD7
:10071000809583238C93E8812E2B28839FBFDF91C4
:10072000CF9108958FB7F894EC912E2B2C938FBF17
:10073000F6CF3FB7F89480918D0290918E02A091F0
:100740008F02B091900226B5A89B05C02F3F19F0EB
:100750000196A11DB11D3FBFBA2FA92F982F882741
:10076000BC01CD01620F711D811D911D42E0660F1C
:10077000771F881F991F4A95D1F708958F929F92EE
:10078000AF92BF92CF92DF92EF92FF924B015C014A
:100790000E9499036B017C010E9499036C197D09E9
:1007A0008E099F09683E734081059105A8F321E0F9
:1007B000821A9108A108B10888EEC80E83E0D81EFD
:1007C000E11CF11C81149104A104B10429F7FF90EC
:1007D000EF90DF90CF90BF90AF909F908F90089553
:1007E0008F929F92AF92BF92CF92DF92EF92FF9241
:1007F0000F931F93CF93DF936C017B018A0180914C
:100800000B01882309F45CC08091A602882309F4B7
:1008100057C08091A40280FF05C08091E0008260F3
:100820008093E000E801B12C8AEFA82E93E0892E96
:100830002AE3922E209711F4BB20D9F10E942901BE
:1008400081110AC0AA94AA20D9F161E070E080E089
:1008500090E00E94BE03EECF8C171D0611F00CF045
:100860008C2F9FB7F8948092E9002091E80025FD35
:1008700002C09FBFDFCF282F30E0C21BD30BF70190
:10088000815020F041914093F100FACFE20EF31E27
:10089000BB2021F09092E800B12CEBCF8091E800D2
:1008A00085FDE7CF9092E800BB24B394209709F32D
:1008B000F3CF5D9884E68093A302101611063CF0F6
:1008C00081E090E0F6019383828310E000E0C801AC
:1008D000DF91CF911F910F91FF90EF90DF90CF901C
:1008E000BF90AF909F908F9008952FB7F89460912C
:1008F000890270918A0280918B0290918C022FBFA5
:1009000008954F925F926F927F929F92AF92BF92A3
:10091000CF92DF92EF92FF920F931F93CF93DF93CB
:1009200000D01F92CDB7DEB7F090F2058091F505AB
:100930009091F605A091F705B091F805892B8A2BC7
:100940008B2BD9F00E949903009192051091930589
:100950002091940530919505601B710B820B930BD0
:100960000091F5051091F6052091F7053091F805F5
:100970006017710782079307C8F20E94990360937A
:100980009205709393058093940590939505E0915B
:10099000FD05F091FE05309759F04091F905509111
:1009A000FA056091FB057091FC058F2D0995F82ED5
:1009B00000919005109191054F2C512C712C612CB8
:1009C0000115110509F45EC0D8011C96EC901C9726
:1009D0008091F3059091F4058436910510F41C96EE
:1009E0001C92D801ED91FC91A280B38019821A82E9
:1009F0001B82FF2089F1F8013696D12CC12C219160
:100A0000222319F19280992001F130E050E040E07A
:100A10002F5F3F4F4F4F5F4FC301B2010E94E1165E
:100A20009B01AC01892D90E0B0E0A0E0BC01CD01BC
:100A30006F5F7F4F8F4F9F4F0E94E116A1E0B0E0A4
:100A4000AC0FBD1FAC0DBD1D8C93BFEFCB1ADB0AE5
:100A500083E0C816D10499F6D8011D964D915C919A
:100A60001E9712966D917C919E012F5F3F4FC8019A
:100A7000F5010995D8011C96EC921C9714960D91DE
:100A80001C919ECF80918E0590918F058C010F5FF8
:100A90001F4F10938F0500938E054997B4F10E9464
:100AA0007504C0908A05D0908B05E0908C05F0907D
:100AB0008D059B01AC012C193D094E095F0921F4FC
:100AC00021E030E040E050E088EE93E0089FB00184
:100AD000099F700D189F700D1124072E000C880BB4
:100AE000990B0E94B0163093F4052093F3051092F1
:100AF0008F0510928E050E94750460938A0570938D
:100B00008B0580938C0590938D050F900F900F901F
:100B1000DF91CF911F910F91FF90EF90DF90CF90D9
:100B2000BF90AF909F907F906F905F904F9008958F
:100B300090E080E0089580E008950F931F93CF9395
:100B4000DF93CDB7DEB7C456D1090FB6F894DEBF38
:100B50000FBECDBFFC01DB019C919E5F9C939E016B
:100B6000295F3F4F8AE5D9011D928A95E9F788E010
:100B700089838BE08A8322E02C8391E09D839E838E
:100B800039E0398764E06A879E879F873A8B44E221
:100B90004B8B9C8BA0E0B1E0BE8BAD8B09E010E0ED
:100BA000188F0F8B998F3B8F6C8F2F8F98A353E0EB
:100BB00059A387E08CA34DA39EA3B8A7AFA3A1E43C
:100BC000B0E0BAA7A9A786E08BA74CA72DA79EA740
:100BD0009FA789AB4AAB2BAB2CAB2DAB3FAB48AF40
:100BE00059AF9AAF5BAF9CAF2DAF9EAF21963FAF91
:100BF000219722964FAF229723965FAF2397249693
:100C00002FAF249725966FAF259726969FAF2697EF
:100C100027969FAF279728969FAF28972A963FAF92
:100C20002A9745E02B964FAF2B972D962FAF2D97F8
:100C300060E470E02F967FAF6EAF2F9763964FAF53
:100C4000639785E264968FAF649765969FAF6597CB
:100C500066969FAF669767969FAF679768963FAF18
:100C6000689769964FAF69976B962FAF6B976D96A4
:100C70007FAF6EAF6D97A1964FAFA197A2968FAF42
:100C8000A297A3969FAFA397A4969FAFA497A5966C
:100C90005FAFA59792819B839B879F5F9A8F9D8F64
:100CA00083812C968FAF2C978F5F80686A968FAF69
:100CB0006A9744E650E0BE016F5F7F4F80E00E947C
:100CC0009E01CC59DF4F0FB6F894DEBF0FBECDBFEB
:100CD000DF91CF911F910F9108952F923F924F92E4
:100CE0005F926F927F928F929F92AF92BF92CF92BC
:100CF000DF92EF92FF920F931F93CF93DF93CDB7C5
:100D0000DEB729970FB6F894DEBF0FBECDBF898737
:100D100049835A836B837C830091900510919105E0
:100D2000BDE78B2E912CA12CB12C0115110509F4D6
:100D30006BC0D801ED91FC910084F185E02DC801D4
:100D400009951C01D8011296ED91FC91C12CD12C72
:100D50007601412C512C320120E030E0A9010097AE
:100D600091F06081260F311D411D511D6181460E9C
:100D7000511C611C711C6281C60ED11CE11CF11C4E
:100D800001973396ECCFA0E5B0E00E946E166D831C
:100D90007E838F839887A7E3B0E0A30192010E942E
:100DA0006E162B013C01ABE4B0E0A70196010E9456
:100DB0006E162D813E814F815885C32ED42EE52E8F
:100DC000FF2445E0429D9001439D300D1124C20E49
:100DD000D31EE11CF11C8C0C9D1CAE1CBF1C452CB1
:100DE000562C672C7724840C951CA61CB71C472F07
:100DF000582F692F7727840E951EA61EB71ED8017F
:100E000014960D911C9191CFB985CB2ED12CF12C3C
:100E1000E12CA7019601C501B4010E94E116872EBD
:100E2000982EA92EBB2429813A814B815C818216A0
:100E30009306A406B50668F0A701960169817A8138
:100E40008B819C810E94E116A50194010E94B0163D
:100E50002987898529960FB6F894DEBF0FBECDBFCE
:100E6000DF91CF911F910F91FF90EF90DF90CF9086
:100E7000BF90AF909F908F907F906F905F904F90BA
:100E80003F902F900895FC01A281B3819C918681AF
:100E90002681982381E0921380E00895FC018681E9
:100EA0000280F381E02D90818095892380830895CD
:100EB000FC0196810280F381E02D8081892B808363
:100EC00008951F93DC01FB017C9111964C911197C1
:100ED00012961C91972F990F990F990F35E5292F8D
:100EE000239F020E20E0211D1124822F672F6074A2
:100EF000572F507277FD6FC061115BC0511105C053
:100F0000922F9095892F90E004C025E5280F90E05E
:100F10008BEA4F3F09F424C0442309F47DC08823A1
:100F200031F0382F349F030E30E0311D832F222300
:100F300021F0249F020E20E0211D992331F0392F4A
:100F4000349F030E30E0311D932F1124342F309540
:100F5000339F030E30E0311D1124830F230F930FB5
:100F60001F3F09F421C030E0112321F0119F312DE2
:100F700009F03F5F332309F453C0882331F0482F31
:100F8000439F040E40E0411D842F222321F0239F24
:100F9000020E20E0211D992331F0492F439F040EBA
:100FA00040E0411D942F11248083218392831F915F
:100FB000089551110BC0392F2AEA329F030E30E0F9
:100FC000311D11249BEA931B280F9CCF90E02095A4
:100FD000982F80E09ECF611112C051110CC0392FA3
:100FE0002AEA329F030E30E0311D11242BEA231B25
:100FF00095E5930FEECF922F909520E08ACF511177
:1010000006C025E5280F9BEA981B822FF6CF2AEA17
:10101000280F90E0932FF8CF9FEF2FEF8FEFA0CF07
:1010200090E020E080E0C0CF0F931F93CF93DF9339
:10103000209187022F5F322F37703093870220FF75
:101040002BC020E831FD2064347009F02062205F5D
:10105000FC01EC01239600E011E06485662329F091
:1010600070E0C8010E94FD166F5F6187322F369FC6
:10107000030E30E0311D1124311110C01682662399
:1010800011F0615061873196EC17FD0731F7DF9160
:10109000CF911F910F91089520E0D4CF3150368326
:1010A000EECF4F925F926F927F928F92AF92BF92EC
:1010B000CF92DF92EF920F931F93CF93DF933C0178
:1010C000EB010E949903F30127853089621B730BA2
:1010D0006A307105B0F3F894E881F98178B17064F1
:1010E00068B16F7B68B9CA848F812C2D281B822F31
:1010F0002F83BF844A805B801D850C85DE841F5F43
:101100000F5FD3949E813885A984EB844181D201FD
:1011100020E0C32F522F322F318144278894311180
:10112000380F08F43FEF8195889410FD430F4795E1
:10113000889411FD430F4795889412FD430F4795FE
:10114000889413FD430F4795889414FD430F4795EA
:10115000889415FD430F4795889416FD430F4795D6
:10116000889417FD430F47958894232F1111242F3E
:101170008C0D422F002C78B900C047FF68B9308130
:101180002227889400C000C0002C68B93111390FA3
:1011900000C0002C78B900C046FF68B908F43FEFE2
:1011A0009195889400C000C0002C68B900FD230F01
:1011B00000C0002C78B900C045FF68B92795889415
:1011C00001FD230F00C000C0002C68B9279588944A
:1011D00000C0002C78B900C044FF68B902FD230F9D
:1011E0002795889400C000C0002C68B903FD230F28
:1011F00000C0002C78B900C043FF68B927958894D7
:1012000004FD230F00C000C0002C68B92795889406
:1012100000C0002C78B900C042FF68B905FD230F5B
:101220002795889400C000C0002C68B906FD230FE4
:1012300000C0002C78B900C041FF68B92795889498
:1012400007FD230F00C000C0002C68B927958894C3
:1012500000C0002C78B900C040FF68B9432F0111CD
:10126000422F9A0D00C000C0002C68B900C000C019
:10127000002C78B900C047FF68B9328122278894D2
:1012800000C000C0002C68B931113C0F00C0002C18
:1012900078B900C046FF68B908F43FEFEB0DF11DC7
:1012A00000C000C0002C68B9D0FC230F00C0002C87
:1012B00078B900C045FF68B927958894D1FC230F01
:1012C00000C000C0002C68B92795889400C0002C8D
:1012D00078B900C044FF68B9D2FC230F27958894E1
:1012E00000C000C0002C68B9D3FC230F00C0002C44
:1012F00078B900C043FF68B927958894D4FC230FC0
:1013000000C000C0002C68B92795889400C0002C4C
:1013100078B900C042FF68B9D5FC230F279588949F
:1013200000C000C0002C68B9D6FC230F00C0002C00
:1013300078B900C041FF68B927958894D7FC230F7E
:1013400000C000C0002C68B92795889400C0002C0C
:1013500078B900C040FF68B9432FD110422FC19522
:1013600000C000C0002C68B9CE0D00C000C078B924
:1013700000C047FF68B931812227889400C000C0AF
:10138000002C68B93111380F00C0002C78B900C0AA
:1013900046FF68B908F43FEF8195889400C000C00B
:1013A000002C68B910FD230F00C0002C78B900C0D4
:1013B00045FF68B92795889411FD230F00C000C030
:1013C000002C68B92795889400C0002C78B900C01B
:1013D00044FF68B912FD230F2795889400C000C010
:1013E000002C68B913FD230F00C0002C78B900C091
:1013F00043FF68B92795889414FD230F00C000C0EF
:10140000002C68B92795889400C0002C78B900C0DA
:1014100042FF68B915FD230F2795889400C000C0CE
:10142000002C68B916FD230F00C0002C78B900C04D
:1014300041FF68B92795889417FD230F00C000C0AD
:10144000002C68B92795889400C0002C78B900C09A
:1014500040FF68B9432F1111422F8C0D00C000C00E
:10146000002C68B9119709F086CE20EE31E0D20148
:101470000E941717DC01CB01F4E0B695A79597956C
:101480008795FA95D1F730E020E0B901EAE94E9E60
:10149000040C611D5E9E600D711D1124650D711D92
:1014A000860F971FA11DB11D893E43E09407A1053A
:1014B000B10508F434C0885E9340A109B10942E047
:1014C000B695A795979587954A95D1F747E0849F5C
:1014D000080E211D949F200D311D1124290F311D4F
:1014E0006091860270E0860F971F820F931F4091D4
:1014F000890250918A0260918B0270918C02292F8F
:101500003327420F531F611D711D40938902509371
:101510008A0260938B0270938C0280938602789487
:101520000E949903F301708B6787DF91CF911F9120
:101530000F91EF90DF90CF90BF90AF908F907F9002
:101540006F905F904F9008953E9A08950F931F9368
:10155000CF93DF93CDB7DEB762970FB6F894DEBFB7
:101560000FBECDBF8C01F901DC011C968C917A83F2
:1015700069835C834B835E834D8390819D879181DA
:101580009E8792819F878130F1F4CE0101960E945F
:10159000140883E0888B1A8A198AD801ED91FC918E
:1015A0000484F585E02DBE016F5F7F4FC80109956A
:1015B00062960FB6F894DEBF0FBECDBFDF91CF911C
:1015C0001F910F9108951C861B861A86198618860E
:1015D0001F82DFCF0F931F93CF93DF93CDB7DEB77B
:1015E00062970FB6F894DEBF0FBECDBF8C01F90134
:1015F000DC011C968C917A8369835C834B835E83C8
:101600004D8390819D8791819E8792819F878130B4
:10161000E9F4CE0101960E941408188A1A8A198AE0
:10162000D801ED91FC910484F585E02DBE016F5F3A
:101630007F4FC801099562960FB6F894DEBF0FBEC2
:10164000CDBFDF91CF911F910F9108951C861B860E
:101650001A86198618861F82E0CFEF92FF920F93A9
:101660001F93CF93DF9300D01F92CDB7DEB7E62E46
:101670008D51990B8C01000F111F6983FF24FA947F
:10168000FA82FB82B801660F771F600F711F6E52DE
:101690007C4FCE0101960E946107E982FA82FB82AB
:1016A0000F5F1F4FB801660F771F600F711F6E52DB
:1016B0007C4FCE0101960E9461070F900F900F9012
:1016C000DF91CF911F910F91FF90EF900895DB0173
:1016D0008D51990B880F991F4C91FC01EE0FFF1F44
:1016E000E80FF91FEE52FC4F408311963C91119781
:1016F000318312962C9122830196FC01EE0FFF1F7D
:10170000E80FF91FEE52FC4F408331832283089586
:1017100090E080E00895FC01858596850895CF933B
:10172000DF9300D000D000D0CDB7DEB7AB011C8274
:101730001D821E82DC01ED91FC910190F081E02D73
:1017400019821A821B829E012F5F3F4FBE016C5F80
:101750007F4F099526960FB6F894DEBF0FBECDBF1A
:10176000DF91CF910895FC0101900020E9F73197B6
:10177000AF01481B590BBC0186E995E00C94F003BE
:10178000CF93DF93FC01448155816081718186E9AB
:1017900095E00E94F003EC0185E791E00E94B30B15
:1017A0008C0F9D1FDF91CF9108958F929F92AF92E2
:1017B000BF920F931F93CF93DF93CDB7DEB7A1975F
:1017C0000FB6F894DEBF0FBECDBF19A2423008F4A9
:1017D0004AE08E010F5D1F4F842E912CB12CA12C5D
:1017E000A50194010E94B016E62FB901CA01EA30A2
:1017F000F4F4E05DD801EE938D01232B242B252BEF
:1018000079F790E080E0109719F0CD010E94B30BBA
:10181000A1960FB6F894DEBF0FBECDBFDF91CF917A
:101820001F910F91BF90AF909F908F900895E95CAA
:10183000E1CF0E9414190F931F93CF93DF93EC0114
:1018400088819981009759F02A813B8126173707B3
:1018500030F081E0DF91CF911F910F9108958B01BE
:101860006F5F7F4F0E945718009759F099838883C4
:101870001B830A832C813D81232B59F7FC011082A5
:10188000E8CF80E0E7CFEF92FF920F931F93CF93C3
:10189000DF936115710541F480E0DF91CF911F91D5
:1018A0000F91FF90EF90089541155105B1F07B0124
:1018B000EC010C811D81040F151FB8010E941B0C47
:1018C000882351F3288139818C819D81B701820F52
:1018D000931F0E9422191D830C8381E0DECFCF93DA
:1018E000DF93EC0188819981009711F00E94CE1757
:1018F000198218821D821C821B821A82DF91CF916D
:101900000895CF93DF93EC016115710539F4CE0191
:101910000E946F0CCE01DF91CF910895FB010190E1
:101920000020E9F73197AF01461B570B0E94430C8B
:10193000882369F3EFCFCF93DF93EC01FB01448160
:101940005581608171810E94430C811103C0CE01D9
:101950000E946F0CCE01DF91CF910895EF92FF921C
:101960000F931F93CF93DF93EC017B018A01BA01A0
:101970000E941B0C81110BC0CE010E946F0CCE0186
:10198000DF91CF911F910F91FF90EF9008951D83EC
:101990000C83B701888199810E942219F0CFEF92C0
:1019A000FF920F931F93CF93DF93CDB7DEB72997A5
:1019B0000FB6F894DEBF0FBECDBF8C01862FF801A5
:1019C0001182108213821282158214824AE09E01D3
:1019D0002F5F3F4F7901B90190E00E942516F70172
:1019E00001900020E9F73197AF014E195F09B70167
:1019F000C8010E94AE0C29960FB6F894DEBF0FBE48
:101A0000CDBFDF91CF911F910F91FF90EF9008957F
:101A1000EF92FF920F931F93CF93DF93CDB7DEB773
:101A200062970FB6F894DEBF0FBECDBF8C01CB011D
:101A3000F8011182108213821282158214824AE008
:101A40009E012F5F3F4F7901B9010E941A16F701DD
:101A500001900020E9F73197AF014E195F09B701F6
:101A6000C8010E94AE0C62960FB6F894DEBF0FBE9E
:101A7000CDBFDF91CF911F910F91FF90EF9008950F
:101A8000FC01118210821382128215821482FB01E2
:101A900001900020E9F73197AF01461B570B0C94DA
:101AA000AE0CFC0180819181009711F00C94CE174F
:101AB000089584E0E8E7F1E0DB0101900D928A955A
:101AC000E1F784E008951F920F920FB60F92112450
:101AD0008F939F938091E1009091E100937F909389
:101AE000E10083FF0FC01092E90091E09093EB00BA
:101AF0001092EC0092E39093ED001092A60298E011
:101B00009093F00082FF22C093E09093E9009091BF
:101B1000F200992319F09AE39093E8009091A302C0
:101B2000992341F09091A30291509093A3029111B7
:101B300001C05D9A9091A202992341F09091A20276
:101B400091509093A202911101C0289A84FF18C06D
:101B50008091E2008E7E81608093E2008091E100BE
:101B60008F7E8093E1008091A4028E7E80618093BD
:101B7000A4029F918F910F900FBE0F901F90189508
:101B800080FFF7CF8091E2008E7E80618093E2003B
:101B90008091E1008E7E8093E1008091A4028E7E90
:101BA0008160E5CF1F920F920FB60F921124CF9252
:101BB000DF92EF92FF920F931F932F933F934F93D8
:101BC0005F936F937F938F939F93AF93BF93EF93A5
:101BD000FF93CF93DF93CDB7DEB76C97DEBFCDBF5A
:101BE0001092E9008091E80083FF25C068E0CE01F3
:101BF00045960E94F70182EF8093E8008D8987FF68
:101C000039C09091E80090FFFCCF982F907609F0B2
:101C100034C19E894F89588D2F89F88C911131C01C
:101C2000803861F58091A5028093F1001092F10057
:101C30008EEF8093E8006C960FB6F894DEBF0FBE6F
:101C4000CDBFDF91CF91FF91EF91BF91AF919F9168
:101C50008F917F916F915F914F913F912F911F9144
:101C60000F91FF90EF90DF90CF900F900FBE0F90ED
:101C70001F9018959EEF9093E800C7CF1092F10047
:101C8000D5CF913059F48111D3CF4130510581F630
:101C90008091A5028D7F8093A502CACF933049F42D
:101CA0008111C6CF4130510519F68091A50282609D
:101CB000F2CF953041F48091E80080FFFCCF20689E
:101CC0002093E300B5CF963009F0A9C00B8D1C8D91
:101CD00022E01092E9001092A00210929F02F212EC
:101CE0002EC010929E0210929D020E9418021F8226
:101CF00099E09983FA8291E09E8390EA98879AEF1F
:101D0000998720919F023091A002275F3F4F3C832B
:101D10002B838D831092E9001092A00210929F02F3
:101D200010939E0200939D0249E050E0BE016F5F58
:101D30007F4F80E00E949E010E94180279CF10938D
:101D40009E0200939D020E940402DC0112960D91F6
:101D50001C910115110509F451C1D801ED91FC91B7
:101D60000480F581E02DBE016B5E7F4FC8010995AF
:101D7000009709F03EC1F80100851185EACFF3E034
:101D8000FF120EC08F89882309F440C0823061F4AD
:101D900040E86DE08EE191E00E946B01811148CF37
:101DA00081E28093EB0047CF813029F440E86BE07B
:101DB00082E191E0F1CF833099F70E940402DC01C7
:101DC0001296ED90FC908E010F5F1F4F6801E11499
:101DD000F10479F0D701ED91FC910680F781E02DB7
:101DE000B801C7010995080F111DF701E084F184BE
:101DF000EECFD8011C92F60101900020E9F731974F
:101E0000BF016C197D0940E0C601C6CF6CEF70E0E0
:101E1000FB01449150E080E80E949E0109CF973079
:101E200009F4BECF983021F481E08093F10000CF17
:101E3000993009F0FDCE837009F0B2CFEFE0F1E008
:101E400081E031E096E32191222371F08093E90053
:101E50003093EB00DF0111972C912093EC009093CD
:101E6000ED008F5F873079F78EE78093EA0010925C
:101E7000EA008F898093A602DBCE8B8D9C8D109219
:101E8000E9001092A00210929F0290939E0280930C
:101E90009D02898D811192C08E899D89913A49F464
:101EA000813209F07DCF47E050E064E071E080E0EE
:101EB000B3CF913209F074CF833269F48F89988D52
:101EC000B0E0A0E08093000190930101A093020193
:101ED000B0930301ADCE803269F48091E80082FFB7
:101EE000FCCF67E084E091E00E94F7018BEF8093E4
:101EF000E8009ECE823209F09BCE8F8980930B0141
:101F0000EEEFFFE7859194918B3F9C4D51F1E0E01E
:101F1000F8E08091040190910501A0910601B09133
:101F20000701803B9440A105B105F1F480910B01BC
:101F300080FD1AC0EE3F8AE0F80789F587E797E74A
:101F400091838083809160008093A10288E19BE06F
:101F50000FB6F894A895809360000FBE9093600030
:101F600067CEEEEFFAE0D5CF808191818737974732
:101F700009F05ECEA8958091600088618093600032
:101F80008091A10280936000EE3F2AE0F20789F081
:101F90008091FE0A9091FF0A9183808349CE8081CF
:101FA00091818737980751F29093FF0A8093FE0A38
:101FB000C5CF1092FF0A1092FE0A3ACE0E94040288
:101FC000DC0112960D911C910115110509F4E8CE62
:101FD000D801ED91FC910190F081E02DBE016B5E86
:101FE0007F4FC8010995811123CEF8010085118525
:101FF000EBCF181619060CF41BCED2CEF1E0FF126F
:10200000BECE60E071E004CF1F920F920FB60F9228
:1020100011242F933F938F939F93AF93BF938091FE
:10202000890290918A02A0918B02B0918C0230912A
:10203000880223E0230F2D3758F50196A11DB11D0D
:10204000209388028093890290938A02A0938B0246
:10205000B0938C0280918D0290918E02A0918F029C
:10206000B09190020196A11DB11D80938D029093B5
:102070008E02A0938F02B0939002BF91AF919F9177
:102080008F913F912F910F900FBE0F901F90189539
:1020900026E8230F0296A11DB11DD2CFCF93DF9367
:1020A000109299051092980588EE93E0A0E0B0E0B8
:1020B00080939A0590939B05A0939C05B0939D05F2
:1020C0008BE591E090939705809396058FEF9FEFB6
:1020D0009093A3058093A20582E08093EA05809304
:1020E000EB0580EF95E09093ED058093EC05109261
:1020F000EF051092EE058DE691E09093E705809351
:10210000E60580E88093F00581E88093F1050E9460
:102110000402FC0181819091EA05482F490F55275F
:10212000551F483051059CF5A281B381109709F5E0
:1021300026EE35E03383228320812093E8058093C7
:10214000E9058091EB05820F80832091EC05A22F99
:10215000B091ED058A2F821B8917C8F481813D91CA
:10216000C82FD0E0C25FDE4F38838F5F8183F2CF0C
:10217000D90118962D913C91199721153105C1F778
:1021800026EE35E019963C932E931897D5CF8FEF16
:102190008093F2051092F4051092F3051092FE055B
:1021A0001092FD058FEF9FEFDC018093F90590936E
:1021B000FA05A093FB05B093FC0520911501309121
:1021C00016014FE1429FC001439F900D112490934F
:1021D00000068093FF05DF91CF910895CF93DF93A1
:1021E000CDB7DEB76E970FB6F894DEBF0FBECDBF8A
:1021F000789484B5826084BD84B5816084BD85B5E2
:10220000826085BD85B5816085BD80916E008160ED
:1022100080936E0010928100809181008260809393
:102220008100809181008160809381008091800095
:102230008160809380008091910082608093910002
:1022400080919100816080939100809190008160E5
:10225000809390008091C10084608093C100809140
:10226000C10082608093C1008091C1008160809331
:10227000C1008091C30081608093C3008091C00041
:1022800082608093C0008091C20081608093C20010
:1022900080917A00846080937A0080917A008260D5
:1022A00080937A0080917A00816080937A00809197
:1022B0007A00806880937A001092A6021092A5029C
:1022C0001092A4028091D70081608093D70080EAA9
:1022D0008093D80089B5806189BD89B5826089BD48
:1022E00009B400FEFDCF61E070E080E090E00E9464
:1022F000BE038091D8008F7C80618093D80080914C
:10230000E000807F8093E0008091E1008E7E8093EA
:10231000E1008DE08093E200559A209A8FEF9FEFC5
:102320009093A3058093A20568EB7BE080E090E0AA
:102330000E94BE038DE696E09093FE058093FD0516
:102340008CE49DE1A0E0B0E08093F9059093FA055C
:10235000A093FB05B093FC0562E083E00E94680354
:1023600062E082E00E94680361E084E00E9468030A
:102370008091BA02811145C01092AC021092AB025A
:102380008FEF8093AF028093B0028093B10280936D
:10239000B2028093B3028093B40281E08093B502CD
:1023A0001092B7021092B6021092AE021092AD02D5
:1023B0008091900590919105892B31F489EA92E002
:1023C0009093910580939005E091A702F091A80267
:1023D000309721F089EA92E09583848389EA92E03C
:1023E0009093A8028093A7021092B9021092B802AB
:1023F00081E391E09093AA028093A90281E0809307
:10240000BA023E9A82ED93E09093AC028093AB02C5
:1024100080E990E09093B7028093B6028091F50531
:102420009091F605A091F705B091F805843C29E05C
:102430009207A105B10520F484EC99E0A0E0B0E09A
:102440008093F5059093F605A093F705B093F805F2
:102450008FEF8093AF0280EB8093B00280EF809388
:10246000B1028091FF058093F20582E895E0E2EDEC
:10247000EE2EE3E0FE2EF701108211821282F3E0CD
:10248000EF0EF11C8E159F05B1F78FEF89831A822D
:102490001B8280910C01BE016F5F7F4F845E0E94A2
:1024A000670B0E94810422242394312C55245A94D2
:1024B00083E00E943F033C0180918805909189054B
:1024C0006816790651F00E94750460938405709334
:1024D000850580938605909387050E947504009179
:1024E0008405109185052091860530918705601B34
:1024F000710B820B930B633371058105910508F411
:1025000052C080918205909183056816790609F47E
:102510004AC070928305609282056114710409F0CB
:1025200042C080910C0190910D0101968730910578
:102530000CF0B6C190930D0180930C0160910C01D9
:1025400070910D01CE0101960E94080D6DE771E0BA
:10255000CE0107960E94400DBE016F5F7F4FCE01F6
:1025600007960E949B0C0E94C00BCE0107960E940A
:10257000510DCE0101960E94510DE2EDF3E0108263
:10258000118212823396EE16FF06C9F759821A821B
:102590001B8280910C01BE016F5F7F4F845E0E94A1
:1025A000670B0E94810482E00E943F036C018091CE
:1025B000D0039091D103C816D90651F00E9475043A
:1025C0006093CC037093CD038093CE039093CF039D
:1025D0000E9475040091CC031091CD032091CE038D
:1025E0003091CF03601B710B820B930B633371052A
:1025F0008105910508F48AC08091CA039091CB03AC
:10260000C816D90609F482C0D092CB03C092CA037F
:10261000C114D10409F07AC000911501109116017E
:102620000F5F1F4F109316010093150119821A8234
:102630001B82BE016F5F7F4F8BE1800F0E94670B93
:102640000930110524F030921601209215012091D5
:10265000150130911601032E000C440B550B21502F
:10266000310941095109ACEFB0E00E946E1627E034
:1026700030E040E050E00E944F16CA01B9016D5FA2
:102680007F4F8F4F9F4F709300066093FF056093BD
:10269000F205CE0101960E94080D6091150170911E
:1026A0001601CE0107960E94080D6BE971E0CE017C
:1026B0000D960E94400DBE01695F7F4FCE010D96C1
:1026C0000E949B0C6BEB71E00E94810CBE016F5F5E
:1026D0007F4F0E949B0C0E94C00BCE010D960E9462
:1026E000510DCE0107960E94510DCE0101960E9418
:1026F000510D19825A821B8280911501BE016F5FB4
:102700007F4F845E0E94670B0E9481048091C20308
:102710009091C303A091C403B091C5034091C60337
:102720005091C7036091C8037091C903841B950B36
:10273000A60BB70B8F739927AA27BB27892B8A2B48
:102740008B2B09F4B2C08091C6039091C703A0916E
:10275000C803B091C903880F991F880F991FFC0106
:10276000EE53FD4FB0800181128143804091C2033E
:102770005091C3036091C4037091C5038091C60357
:102780009091C703A091C803B091C9034817590796
:102790006A077B07B9F08091C6039091C703A091A7
:1027A000C803B091C9030196A11DB11D8F7399276C
:1027B000AA27BB278093C6039093C703A093C8039F
:1027C000B093C903BB2009F478C181E00E941403CF
:1027D00039E0B31609F4CEC08BE0B81609F4B7C1DE
:1027E00098E0B912F6C180910C0190910D01198207
:1027F000059709F0A3C15B8230EF3A8392EDA92ED1
:1028000093E0B92EB501CE0101960E94610789813E
:102810008B5F898383E0A80EB11CEA14FB0491F757
:10282000642DCE0101960E94CF0C812F6CE00E9496
:10283000F116B92EE82FE150FF0BBF01CE0107962C
:102840000E94080DEB2DF0E0EE0FFF1FE15CFE4F44
:10285000A080B180612FCE010D960E94CF0C602F19
:10286000CE0143960E94CF0C63E172E0CE014996FF
:102870000E94400DBE016D5E7F4FCE0149960E94C1
:102880009B0C64EE71E00E94810CBE01635F7F4F80
:102890000E949B0C6CEE71E00E94810CB501E2C0BD
:1028A00030920D0120920C0149CE8091E9050E94E1
:1028B000EE01B82E412C10E000E0882309F456CF39
:1028C0008090C2039090C303A090C403B090C5034E
:1028D0002FEF821A920AA20AB20A3FE383229924B6
:1028E000AA24BB248091C6039091C703A091C8037A
:1028F000B091C90388159905AA05BB0509F423CF32
:102900008091E9050E94EE0144E050E0BE016F5F56
:102910007F4F8091E9050E94C40104970CF413CF06
:102920008091C2039091C303A091C403B091C503E9
:10293000880F991F880F991F8E539D4F49815A8187
:102940006B817C81FC01408351836283738380921D
:10295000C2039092C303A092C403B092C503FFEFD9
:102960008F1A9F0AAF0ABF0A2FE382229924AA2452
:10297000BB24B8CF812F6CE00E94F116E82FE15004
:10298000FF0B5F01E92FF0E0EE0FFF1FE15CFE4F50
:1029900080809180442009F4B1C00B3978F4063965
:1029A000B8F4003978F080910C0190910D018130DC
:1029B000910559F419821A825B820DC00B3999F383
:1029C0000C3931F059825A82F7CF8230910551F497
:1029D00019825A821B82BE016F5F7F4F812F0E9436
:1029E000670B11C0149DB00111248330910541F093
:1029F0008430910509F071C0642D70E0660F771F77
:102A0000812F0E942D0B642DCE0101960E94CF0CC8
:102A1000B501CE0107960E94080D612FCE010D96DB
:102A20000E94CF0C602FCE0143960E94CF0C6FEC1A
:102A300071E0CE0149960E94400DBE016D5E7F4F50
:102A4000CE0149960E949B0C64EE71E00E94810CBD
:102A5000BE01635F7F4F0E949B0C6CEE71E00E9491
:102A6000810CB4010E94810CBE01695F7F4F0E94FE
:102A70009B0C63EF71E00E94810CBE016F5F7F4F82
:102A80000E949B0C0E94C00BCE0149960E94510DE2
:102A9000CE0143960E94510DCE010D960E94510D1C
:102AA000CE0107960E94510DCE0101960E94510D54
:102AB0000E94810480E00E94140370928905609254
:102AC0008805D092D103C092D00320E030E0232BC0
:102AD00009F4EECC0E940000E9CC8530910509F4A0
:102AE00071CF069709F08FCF212F2D51330BC901DC
:102AF000B901660F771F680F791F82CF19821A827A
:102B00001B82BE016F5F7F4F812F0E94670B60E0C9
:102B1000CE0101960E94CF0CB501CE0107960E940E
:102B2000080D612FCE010D960E94CF0C602FCE01B3
:102B300043960E94CF0C6EEF71E07BCF1A821B820E
:102B4000BE016F5F7F4F812F0E94670B69CE642D9E
:102B5000CE0101960E94CF0C612FCE0107960E94F4
:102B6000CF0C602F6F70CE010D960E94CF0C68E2E3
:102B700072E0CE0143960E94400DBE01635F7F4F1D
:102B8000CE0143960E949B0C6CE372E00E94810C84
:102B9000BE01695F7F4F0E949B0C66E472E00E9459
:102BA000810CBE016F5F7F4F0E949B0C0E94C00B87
:102BB000CE0143960E94510DCE010D960E94510DFB
:102BC000CE0107960E94510DCE0101960E94510D33
:102BD00071CF8EE492E00E94B30B6B2D70E090E019
:102BE00080E040E10E94D50B87E692E00E94B30BA3
:102BF000602F70E090E080E040E10E94D50B87E616
:102C000092E00E94B30B612F70E090E080E040E121
:102C10000E94D50B87E692E00E94B30B642D70E012
:102C200090E080E040E10E94D50B85E791E00E94B2
:102C3000B30B40CFBB274A3031F4992322F4BDE2D5
:102C4000909581959F4F0C942616BB27FB01552725
:102C5000AA27880F991FAA1FA41710F0A41B8395F9
:102C60005051B9F7A05DAA3308F0A95DA193009770
:102C700079F7B111B1931192CB010C943F16DC019D
:102C8000FC01672F71917723E1F7329704C07C91A3
:102C90006D9370836291AE17BF07C8F30895052E38
:102CA00097FB1EF400940E94661657FD07D00E9401
:102CB000B01607FC03D04EF40C9466165095409560
:102CC000309521953F4F4F4F5F4F089590958095D8
:102CD000709561957F4F8F4F9F4F08950E94D21638
:102CE000A59F900DB49F900DA49F800D911D112460
:102CF00008952F923F924F925F926F927F928F92A0
:102D00009F92AF92BF92CF92DF92EF92FF920F937A
:102D10001F93CF93DF93CDB7DEB7CA1BDB0B0FB684
:102D2000F894DEBF0FBECDBF09942A883988488841
:102D30005F846E847D848C849B84AA84B984C884D7
:102D4000DF80EE80FD800C811B81AA81B981CE0FCE
:102D5000D11D0FB6F894DEBF0FBECDBFED010895B3
:102D6000A1E21A2EAA1BBB1BFD010DC0AA1FBB1F8F
:102D7000EE1FFF1FA217B307E407F50720F0A21B01
:102D8000B30BE40BF50B661F771F881F991F1A946E
:102D900069F760957095809590959B01AC01BD0198
:102DA000CF010895A29FB001B39FC001A39F700DF2
:102DB000811D1124911DB29F700D811D1124911D43
:102DC0000895DB018F939F930E946E16BF91AF9180
:102DD000A29F800D911DA39F900DB29F900D112475
:102DE0000895991B79E004C0991F961708F0961B67
:102DF000881F7A95C9F78095089597FB072E16F4DA
:102E0000009407D077FD09D00E941E1707FC05D05B
:102E10003EF4909581959F4F0895709561957F4FF1
:102E20000895EE0FFF1F0590F491E02D09940E9484
:102E3000D216B7FF0895821B930B0895AA1BBB1BE4
:102E400051E107C0AA1FBB1FA617B70710F0A61BAA
:102E5000B70B881F991F5A95A9F780959095BC01CB
:102E6000CD0108950F931F93CF93DF938230910587
:102E700010F482E090E0E0910306F091040630E067
:102E800020E0B0E0A0E0309799F42115310509F475
:102E90004AC0281B390B24303105D8F58A819B8123
:102EA0006115710589F1FB0193838283FE0111C0D5
:102EB000408151810281138148175907E0F048177A
:102EC000590799F4109761F012960C931297139684
:102ED0001C933296CF01DF91CF911F910F910895EE
:102EE0000093030610930406F4CF2115310551F029
:102EF0004217530738F0A901DB019A01BD01DF0138
:102F0000F801C1CFEF01F9CF909304068093030637
:102F1000CDCFFE01E20FF31F81939193225031092F
:102F200039832883D7CF2091010630910206232BC5
:102F300041F42091190130911A0130930206209337
:102F4000010620911701309118012115310541F436
:102F50002DB73EB740911B0150911C01241B350B2E
:102F6000E0910106F0910206E217F307A0F42E1B90
:102F70003F0B2817390778F0AC014E5F5F4F2417DD
:102F8000350748F04E0F5F1F50930206409301062D
:102F9000819391939FCFF0E0E0E09CCFCF93DF93BC
:102FA0000097E9F0FC01329713821282A091030688
:102FB000B0910406ED0130E020E01097A1F42081EB
:102FC0003181820F931F209101063091020628174C
:102FD000390709F061C0F0930206E0930106DF9122
:102FE000CF910895EA01CE17DF07E8F54A815B81AA
:102FF0009E0141155105B1F7E901FB83EA8349912F
:103000005991C40FD51FEC17FD0761F480819181A0
:103010000296840F951FE9019983888382819381A9
:103020009B838A83F0E0E0E012968D919C91139748
:103030000097B9F52D913C911197CD010296820F21
:10304000931F20910106309102062817390739F69F
:10305000309751F51092040610920306B0930206C1
:10306000A0930106BCCFD383C28340815181840FDA
:10307000951FC817D90761F44E5F5F4F888199810A
:10308000480F591F518340838A819B819383828398
:103090002115310509F0B0CFF0930406E093030643
:1030A0009ECFFD01DC01C0CF13821282D7CFB0E0EA
:1030B000A0E0EDE5F8E10C947B168C01009751F44B
:1030C000CB010E9432178C01C801CDB7DEB7E0E119
:1030D0000C949716FC01E60FF71F9C012250310952
:1030E000E217F30708F49DC0D901CD91DC91119747
:1030F000C617D70798F0C530D10530F3CE01049735
:103100008617970708F3C61BD70B2297C193D19355
:103110006D937C93CF010E94CE17D6CF5B01AC1A82
:10312000BD0A4C018C0E9D1EA0910306B0910406B1
:10313000512C412CF12CE12C109731F58091010696
:10314000909102068815990509F05CC0461657064D
:1031500008F058C08091170190911801009741F430
:103160008DB79EB740911B0150911C01841B950B9C
:10317000E817F90708F055C0F0930206E09301063E
:10318000F90171836083A0CF8D919C911197129664
:103190006C90129713967C901397A815B90559F562
:1031A0006C0142E0C40ED11CCA14DB0420F1AC0156
:1031B0004A195B09DA011296159780F062827382D0
:1031C00051834083D9016D937C93E114F10471F034
:1031D000D7011396FC93EE93129776CF22968C0F1D
:1031E0009D1FF90191838083F301EFCFF0930406D3
:1031F000E093030669CF4816590608F42C017D01B7
:10320000D3019ACFCB010E9432177C01009749F07D
:10321000AE01B8010E941919C8010E94CE1787019A
:1032200053CF10E000E050CF81E090E0F8940C9490
:103230002919FB01DC0102C001900D924150504060
:10324000D8F70895FB01DC0101900D920020E1F711
:063250000895F894FFCF81
:10325600FFFFFFFF00E1000000000000010000C1C9
:1032660080810000000200000005068000000000CA
:1032760000190C190C190C8F0B8B0B880B00000016
:1032860000EA0AA60AA40A8F0B8B0B3A01510869B9
:10329600026B026E0270027302750277027A027C7A
:1032A600027F0281028402000000004902F0036AE4
:1032B600025F02B8026E029002000000009B059DAC
:1032C600059805590D0D0A004D494449004275748B
:1032D600746F6E203120707265737365642120509F
:1032E600726F6772616D2069732000427574746F26
:1032F6006E203220707265737365642120496E7486
:10330600656E73697479206973200020616E64208C
:103316006272696768746E65737320746F20004EFD
:103326006F7465204F4E2020202D204368616E6EFD
:10333600656C3A002050697463683A00204E6F74D9
:10334600653A002056656C6F636974793A004E6F72
:103356007465204F464632202D204368616E6E65A7
:103366006C3A004E6F7465204F464620202D204350
:1033760068616E6E656C3A00436F6E74726F6C2096
:10338600202D204368616E6E656C3A0020436F6E97
:1033960074726F6C3A002056616C75653A00556E12
:1033A60068616E646C6564204D494449206D65739F
:1033B600736167653A20002D0043004323004400F3
:1033C60044230045004600462300470047230041AA
:0633D6000041230042004B
:00000001FF
